{
  "_format": "hh-sol-artifact-1",
  "contractName": "ShadowNFT",
  "sourceName": "contracts/ShadowNFT.sol",
  "abi": [
    {
      "inputs": [],
      "stateMutability": "nonpayable",
      "type": "constructor"
    },
    {
      "inputs": [
        {
          "internalType": "address",
          "name": "sender",
          "type": "address"
        },
        {
          "internalType": "uint256",
          "name": "tokenId",
          "type": "uint256"
        },
        {
          "internalType": "address",
          "name": "owner",
          "type": "address"
        }
      ],
      "name": "ERC721IncorrectOwner",
      "type": "error"
    },
    {
      "inputs": [
        {
          "internalType": "address",
          "name": "operator",
          "type": "address"
        },
        {
          "internalType": "uint256",
          "name": "tokenId",
          "type": "uint256"
        }
      ],
      "name": "ERC721InsufficientApproval",
      "type": "error"
    },
    {
      "inputs": [
        {
          "internalType": "address",
          "name": "approver",
          "type": "address"
        }
      ],
      "name": "ERC721InvalidApprover",
      "type": "error"
    },
    {
      "inputs": [
        {
          "internalType": "address",
          "name": "operator",
          "type": "address"
        }
      ],
      "name": "ERC721InvalidOperator",
      "type": "error"
    },
    {
      "inputs": [
        {
          "internalType": "address",
          "name": "owner",
          "type": "address"
        }
      ],
      "name": "ERC721InvalidOwner",
      "type": "error"
    },
    {
      "inputs": [
        {
          "internalType": "address",
          "name": "receiver",
          "type": "address"
        }
      ],
      "name": "ERC721InvalidReceiver",
      "type": "error"
    },
    {
      "inputs": [
        {
          "internalType": "address",
          "name": "sender",
          "type": "address"
        }
      ],
      "name": "ERC721InvalidSender",
      "type": "error"
    },
    {
      "inputs": [
        {
          "internalType": "uint256",
          "name": "tokenId",
          "type": "uint256"
        }
      ],
      "name": "ERC721NonexistentToken",
      "type": "error"
    },
    {
      "inputs": [
        {
          "internalType": "address",
          "name": "owner",
          "type": "address"
        }
      ],
      "name": "OwnableInvalidOwner",
      "type": "error"
    },
    {
      "inputs": [
        {
          "internalType": "address",
          "name": "account",
          "type": "address"
        }
      ],
      "name": "OwnableUnauthorizedAccount",
      "type": "error"
    },
    {
      "anonymous": false,
      "inputs": [
        {
          "indexed": true,
          "internalType": "address",
          "name": "owner",
          "type": "address"
        },
        {
          "indexed": true,
          "internalType": "address",
          "name": "approved",
          "type": "address"
        },
        {
          "indexed": true,
          "internalType": "uint256",
          "name": "tokenId",
          "type": "uint256"
        }
      ],
      "name": "Approval",
      "type": "event"
    },
    {
      "anonymous": false,
      "inputs": [
        {
          "indexed": true,
          "internalType": "address",
          "name": "owner",
          "type": "address"
        },
        {
          "indexed": true,
          "internalType": "address",
          "name": "operator",
          "type": "address"
        },
        {
          "indexed": false,
          "internalType": "bool",
          "name": "approved",
          "type": "bool"
        }
      ],
      "name": "ApprovalForAll",
      "type": "event"
    },
    {
      "anonymous": false,
      "inputs": [
        {
          "indexed": false,
          "internalType": "uint256",
          "name": "_fromTokenId",
          "type": "uint256"
        },
        {
          "indexed": false,
          "internalType": "uint256",
          "name": "_toTokenId",
          "type": "uint256"
        }
      ],
      "name": "BatchMetadataUpdate",
      "type": "event"
    },
    {
      "anonymous": false,
      "inputs": [
        {
          "indexed": false,
          "internalType": "uint256",
          "name": "_tokenId",
          "type": "uint256"
        }
      ],
      "name": "MetadataUpdate",
      "type": "event"
    },
    {
      "anonymous": false,
      "inputs": [
        {
          "indexed": true,
          "internalType": "address",
          "name": "previousOwner",
          "type": "address"
        },
        {
          "indexed": true,
          "internalType": "address",
          "name": "newOwner",
          "type": "address"
        }
      ],
      "name": "OwnershipTransferred",
      "type": "event"
    },
    {
      "anonymous": false,
      "inputs": [
        {
          "indexed": true,
          "internalType": "address",
          "name": "user",
          "type": "address"
        },
        {
          "indexed": false,
          "internalType": "uint256",
          "name": "tokenId",
          "type": "uint256"
        },
        {
          "indexed": false,
          "internalType": "uint256",
          "name": "timestamp",
          "type": "uint256"
        }
      ],
      "name": "TokenBurned",
      "type": "event"
    },
    {
      "anonymous": false,
      "inputs": [
        {
          "indexed": true,
          "internalType": "address",
          "name": "from",
          "type": "address"
        },
        {
          "indexed": true,
          "internalType": "address",
          "name": "to",
          "type": "address"
        },
        {
          "indexed": true,
          "internalType": "uint256",
          "name": "tokenId",
          "type": "uint256"
        }
      ],
      "name": "Transfer",
      "type": "event"
    },
    {
      "stateMutability": "payable",
      "type": "fallback"
    },
    {
      "inputs": [],
      "name": "MAX_MINTS",
      "outputs": [
        {
          "internalType": "uint256",
          "name": "",
          "type": "uint256"
        }
      ],
      "stateMutability": "view",
      "type": "function"
    },
    {
      "inputs": [
        {
          "internalType": "address",
          "name": "to",
          "type": "address"
        },
        {
          "internalType": "uint256",
          "name": "tokenId",
          "type": "uint256"
        }
      ],
      "name": "approve",
      "outputs": [],
      "stateMutability": "nonpayable",
      "type": "function"
    },
    {
      "inputs": [
        {
          "internalType": "address",
          "name": "owner",
          "type": "address"
        }
      ],
      "name": "balanceOf",
      "outputs": [
        {
          "internalType": "uint256",
          "name": "",
          "type": "uint256"
        }
      ],
      "stateMutability": "view",
      "type": "function"
    },
    {
      "inputs": [
        {
          "internalType": "uint256",
          "name": "tokenId",
          "type": "uint256"
        }
      ],
      "name": "burn",
      "outputs": [],
      "stateMutability": "nonpayable",
      "type": "function"
    },
    {
      "inputs": [
        {
          "internalType": "uint256",
          "name": "tokenId",
          "type": "uint256"
        }
      ],
      "name": "getApproved",
      "outputs": [
        {
          "internalType": "address",
          "name": "",
          "type": "address"
        }
      ],
      "stateMutability": "view",
      "type": "function"
    },
    {
      "inputs": [],
      "name": "getMyTokens",
      "outputs": [
        {
          "internalType": "uint256[]",
          "name": "",
          "type": "uint256[]"
        }
      ],
      "stateMutability": "view",
      "type": "function"
    },
    {
      "inputs": [
        {
          "internalType": "address",
          "name": "owner",
          "type": "address"
        },
        {
          "internalType": "address",
          "name": "operator",
          "type": "address"
        }
      ],
      "name": "isApprovedForAll",
      "outputs": [
        {
          "internalType": "bool",
          "name": "",
          "type": "bool"
        }
      ],
      "stateMutability": "view",
      "type": "function"
    },
    {
      "inputs": [
        {
          "internalType": "address",
          "name": "",
          "type": "address"
        },
        {
          "internalType": "uint256",
          "name": "",
          "type": "uint256"
        }
      ],
      "name": "logs",
      "outputs": [
        {
          "internalType": "uint256",
          "name": "tokenId",
          "type": "uint256"
        },
        {
          "internalType": "address",
          "name": "minter",
          "type": "address"
        },
        {
          "internalType": "uint256",
          "name": "timestamp",
          "type": "uint256"
        }
      ],
      "stateMutability": "view",
      "type": "function"
    },
    {
      "inputs": [
        {
          "internalType": "address",
          "name": "to",
          "type": "address"
        },
        {
          "internalType": "string",
          "name": "_tokenURI",
          "type": "string"
        }
      ],
      "name": "mint",
      "outputs": [],
      "stateMutability": "nonpayable",
      "type": "function"
    },
    {
      "inputs": [
        {
          "internalType": "string",
          "name": "_tokenURI",
          "type": "string"
        }
      ],
      "name": "mintClone",
      "outputs": [],
      "stateMutability": "nonpayable",
      "type": "function"
    },
    {
      "inputs": [
        {
          "internalType": "address",
          "name": "",
          "type": "address"
        }
      ],
      "name": "mintedCount",
      "outputs": [
        {
          "internalType": "uint256",
          "name": "",
          "type": "uint256"
        }
      ],
      "stateMutability": "view",
      "type": "function"
    },
    {
      "inputs": [],
      "name": "name",
      "outputs": [
        {
          "internalType": "string",
          "name": "",
          "type": "string"
        }
      ],
      "stateMutability": "view",
      "type": "function"
    },
    {
      "inputs": [],
      "name": "owner",
      "outputs": [
        {
          "internalType": "address",
          "name": "",
          "type": "address"
        }
      ],
      "stateMutability": "view",
      "type": "function"
    },
    {
      "inputs": [
        {
          "internalType": "uint256",
          "name": "tokenId",
          "type": "uint256"
        }
      ],
      "name": "ownerOf",
      "outputs": [
        {
          "internalType": "address",
          "name": "",
          "type": "address"
        }
      ],
      "stateMutability": "view",
      "type": "function"
    },
    {
      "inputs": [],
      "name": "renounceOwnership",
      "outputs": [],
      "stateMutability": "nonpayable",
      "type": "function"
    },
    {
      "inputs": [
        {
          "internalType": "address",
          "name": "from",
          "type": "address"
        },
        {
          "internalType": "address",
          "name": "to",
          "type": "address"
        },
        {
          "internalType": "uint256",
          "name": "tokenId",
          "type": "uint256"
        }
      ],
      "name": "safeTransferFrom",
      "outputs": [],
      "stateMutability": "nonpayable",
      "type": "function"
    },
    {
      "inputs": [
        {
          "internalType": "address",
          "name": "from",
          "type": "address"
        },
        {
          "internalType": "address",
          "name": "to",
          "type": "address"
        },
        {
          "internalType": "uint256",
          "name": "tokenId",
          "type": "uint256"
        },
        {
          "internalType": "bytes",
          "name": "data",
          "type": "bytes"
        }
      ],
      "name": "safeTransferFrom",
      "outputs": [],
      "stateMutability": "nonpayable",
      "type": "function"
    },
    {
      "inputs": [
        {
          "internalType": "address",
          "name": "operator",
          "type": "address"
        },
        {
          "internalType": "bool",
          "name": "approved",
          "type": "bool"
        }
      ],
      "name": "setApprovalForAll",
      "outputs": [],
      "stateMutability": "nonpayable",
      "type": "function"
    },
    {
      "inputs": [
        {
          "internalType": "bytes4",
          "name": "interfaceId",
          "type": "bytes4"
        }
      ],
      "name": "supportsInterface",
      "outputs": [
        {
          "internalType": "bool",
          "name": "",
          "type": "bool"
        }
      ],
      "stateMutability": "view",
      "type": "function"
    },
    {
      "inputs": [],
      "name": "symbol",
      "outputs": [
        {
          "internalType": "string",
          "name": "",
          "type": "string"
        }
      ],
      "stateMutability": "view",
      "type": "function"
    },
    {
      "inputs": [
        {
          "internalType": "uint256",
          "name": "tokenId",
          "type": "uint256"
        }
      ],
      "name": "tokenURI",
      "outputs": [
        {
          "internalType": "string",
          "name": "",
          "type": "string"
        }
      ],
      "stateMutability": "view",
      "type": "function"
    },
    {
      "inputs": [],
      "name": "totalSupply",
      "outputs": [
        {
          "internalType": "uint256",
          "name": "",
          "type": "uint256"
        }
      ],
      "stateMutability": "view",
      "type": "function"
    },
    {
      "inputs": [
        {
          "internalType": "address",
          "name": "from",
          "type": "address"
        },
        {
          "internalType": "address",
          "name": "to",
          "type": "address"
        },
        {
          "internalType": "uint256",
          "name": "tokenId",
          "type": "uint256"
        }
      ],
      "name": "transferFrom",
      "outputs": [],
      "stateMutability": "nonpayable",
      "type": "function"
    },
    {
      "inputs": [
        {
          "internalType": "address",
          "name": "newOwner",
          "type": "address"
        }
      ],
      "name": "transferOwnership",
      "outputs": [],
      "stateMutability": "nonpayable",
      "type": "function"
    },
    {
      "stateMutability": "payable",
      "type": "receive"
    }
  ],
  "bytecode": "0x608060405234801561001057600080fd5b50336040518060400160405280600981526020017f536861646f774e465400000000000000000000000000000000000000000000008152506040518060400160405280600681526020017f536861646f770000000000000000000000000000000000000000000000000000815250816000908161008d919061043d565b50806001908161009d919061043d565b505050600073ffffffffffffffffffffffffffffffffffffffff168173ffffffffffffffffffffffffffffffffffffffff16036101125760006040517f1e4fbdf70000000000000000000000000000000000000000000000000000000081526004016101099190610550565b60405180910390fd5b6101218161012760201b60201c565b5061056b565b6000600760009054906101000a900473ffffffffffffffffffffffffffffffffffffffff16905081600760006101000a81548173ffffffffffffffffffffffffffffffffffffffff021916908373ffffffffffffffffffffffffffffffffffffffff1602179055508173ffffffffffffffffffffffffffffffffffffffff168173ffffffffffffffffffffffffffffffffffffffff167f8be0079c531659141344cd1fd0a4f28419497f9722a3daafe3b4186f6b6457e060405160405180910390a35050565b600081519050919050565b7f4e487b7100000000000000000000000000000000000000000000000000000000600052604160045260246000fd5b7f4e487b7100000000000000000000000000000000000000000000000000000000600052602260045260246000fd5b6000600282049050600182168061026e57607f821691505b60208210810361028157610280610227565b5b50919050565b60008190508160005260206000209050919050565b60006020601f8301049050919050565b600082821b905092915050565b6000600883026102e97fffffffffffffffffffffffffffffffffffffffffffffffffffffffffffffffff826102ac565b6102f386836102ac565b95508019841693508086168417925050509392505050565b6000819050919050565b6000819050919050565b600061033a6103356103308461030b565b610315565b61030b565b9050919050565b6000819050919050565b6103548361031f565b61036861036082610341565b8484546102b9565b825550505050565b600090565b61037d610370565b61038881848461034b565b505050565b5b818110156103ac576103a1600082610375565b60018101905061038e565b5050565b601f8211156103f1576103c281610287565b6103cb8461029c565b810160208510156103da578190505b6103ee6103e68561029c565b83018261038d565b50505b505050565b600082821c905092915050565b6000610414600019846008026103f6565b1980831691505092915050565b600061042d8383610403565b9150826002028217905092915050565b610446826101ed565b67ffffffffffffffff81111561045f5761045e6101f8565b5b6104698254610256565b6104748282856103b0565b600060209050601f8311600181146104a75760008415610495578287015190505b61049f8582610421565b865550610507565b601f1984166104b586610287565b60005b828110156104dd578489015182556001820191506020850194506020810190506104b8565b868310156104fa57848901516104f6601f891682610403565b8355505b6001600288020188555050505b505050505050565b600073ffffffffffffffffffffffffffffffffffffffff82169050919050565b600061053a8261050f565b9050919050565b61054a8161052f565b82525050565b60006020820190506105656000830184610541565b92915050565b6134e38061057a6000396000f3fe60806040526004361061014f5760003560e01c80638d35ca33116100b6578063cce132d11161006f578063cce132d114610490578063d0def521146104bb578063e985e9c5146104e4578063ee7bafbb14610521578063f2fde38b14610560578063fddcb5ea1461058957610150565b80638d35ca33146103825780638da5cb5b146103ab57806395d89b41146103d6578063a22cb46514610401578063b88d4fde1461042a578063c87b56dd1461045357610150565b806342842e0e1161010857806342842e0e1461027457806342966c681461029d5780635b3b136a146102c65780636352211e146102f157806370a082311461032e578063715018a61461036b57610150565b806301ffc9a71461015257806306fdde031461018f578063081812fc146101ba578063095ea7b3146101f757806318160ddd1461022057806323b872dd1461024b57610150565b5b005b34801561015e57600080fd5b5061017960048036038101906101749190612640565b6105c6565b6040516101869190612688565b60405180910390f35b34801561019b57600080fd5b506101a46105d8565b6040516101b19190612733565b60405180910390f35b3480156101c657600080fd5b506101e160048036038101906101dc919061278b565b61066a565b6040516101ee91906127f9565b60405180910390f35b34801561020357600080fd5b5061021e60048036038101906102199190612840565b610686565b005b34801561022c57600080fd5b5061023561069c565b604051610242919061288f565b60405180910390f35b34801561025757600080fd5b50610272600480360381019061026d91906128aa565b6106a6565b005b34801561028057600080fd5b5061029b600480360381019061029691906128aa565b6107a8565b005b3480156102a957600080fd5b506102c460048036038101906102bf919061278b565b6107c8565b005b3480156102d257600080fd5b506102db610938565b6040516102e891906129bb565b60405180910390f35b3480156102fd57600080fd5b506103186004803603810190610313919061278b565b610cb0565b60405161032591906127f9565b60405180910390f35b34801561033a57600080fd5b50610355600480360381019061035091906129dd565b610cc2565b604051610362919061288f565b60405180910390f35b34801561037757600080fd5b50610380610d7c565b005b34801561038e57600080fd5b506103a960048036038101906103a49190612b3f565b610d90565b005b3480156103b757600080fd5b506103c0610f90565b6040516103cd91906127f9565b60405180910390f35b3480156103e257600080fd5b506103eb610fba565b6040516103f89190612733565b60405180910390f35b34801561040d57600080fd5b5061042860048036038101906104239190612bb4565b61104c565b005b34801561043657600080fd5b50610451600480360381019061044c9190612c95565b611062565b005b34801561045f57600080fd5b5061047a6004803603810190610475919061278b565b611087565b6040516104879190612733565b60405180910390f35b34801561049c57600080fd5b506104a5611099565b6040516104b2919061288f565b60405180910390f35b3480156104c757600080fd5b506104e260048036038101906104dd9190612d18565b61109e565b005b3480156104f057600080fd5b5061050b60048036038101906105069190612d74565b6111d0565b6040516105189190612688565b60405180910390f35b34801561052d57600080fd5b5061054860048036038101906105439190612840565b611264565b60405161055793929190612db4565b60405180910390f35b34801561056c57600080fd5b50610587600480360381019061058291906129dd565b6112cb565b005b34801561059557600080fd5b506105b060048036038101906105ab91906129dd565b611351565b6040516105bd919061288f565b60405180910390f35b60006105d182611369565b9050919050565b6060600080546105e790612e1a565b80601f016020809104026020016040519081016040528092919081815260200182805461061390612e1a565b80156106605780601f1061063557610100808354040283529160200191610660565b820191906000526020600020905b81548152906001019060200180831161064357829003601f168201915b5050505050905090565b6000610675826113ca565b5061067f82611452565b9050919050565b610698828261069361148f565b611497565b5050565b6000600854905090565b600073ffffffffffffffffffffffffffffffffffffffff168273ffffffffffffffffffffffffffffffffffffffff16036107185760006040517f64a0ae9200000000000000000000000000000000000000000000000000000000815260040161070f91906127f9565b60405180910390fd5b600061072c838361072761148f565b6114a9565b90508373ffffffffffffffffffffffffffffffffffffffff168173ffffffffffffffffffffffffffffffffffffffff16146107a2578382826040517f64283d7b00000000000000000000000000000000000000000000000000000000815260040161079993929190612e4b565b60405180910390fd5b50505050565b6107c383838360405180602001604052806000815250611062565b505050565b3373ffffffffffffffffffffffffffffffffffffffff166107e882610cb0565b73ffffffffffffffffffffffffffffffffffffffff161461083e576040517f08c379a000000000000000000000000000000000000000000000000000000000815260040161083590612ece565b60405180910390fd5b610847816116c3565b6000600a60003373ffffffffffffffffffffffffffffffffffffffff1673ffffffffffffffffffffffffffffffffffffffff1681526020019081526020016000205411156108e557600a60003373ffffffffffffffffffffffffffffffffffffffff1673ffffffffffffffffffffffffffffffffffffffff16815260200190815260200160002060008154809291906108df90612f1d565b91905055505b3373ffffffffffffffffffffffffffffffffffffffff167fde3ca466246b0da455138dbea78dacd91d3c40dc98d5846ff0193bf67c24b0e7824260405161092d929190612f46565b60405180910390a250565b60606000600960003373ffffffffffffffffffffffffffffffffffffffff1673ffffffffffffffffffffffffffffffffffffffff168152602001908152602001600020805480602002602001604051908101604052809291908181526020016000905b82821015610a375783829060005260206000209060030201604051806060016040529081600082015481526020016001820160009054906101000a900473ffffffffffffffffffffffffffffffffffffffff1673ffffffffffffffffffffffffffffffffffffffff1673ffffffffffffffffffffffffffffffffffffffff1681526020016002820154815250508152602001906001019061099b565b505050509050600080600090505b8251811015610b3b576000838281518110610a6357610a62612f6f565b5b60200260200101516000015190503073ffffffffffffffffffffffffffffffffffffffff16636352211e826040518263ffffffff1660e01b8152600401610aaa919061288f565b602060405180830381865afa925050508015610ae457506040513d601f19601f82011682018060405250810190610ae19190612fb3565b60015b15610b2d573373ffffffffffffffffffffffffffffffffffffffff168173ffffffffffffffffffffffffffffffffffffffff1603610b2b578380610b2790612fe0565b9450505b505b508080600101915050610a45565b5060008167ffffffffffffffff811115610b5857610b57612a14565b5b604051908082528060200260200182016040528015610b865781602001602082028036833780820191505090505b509050600080600090505b8451811015610ca5576000858281518110610baf57610bae612f6f565b5b60200260200101516000015190503073ffffffffffffffffffffffffffffffffffffffff16636352211e826040518263ffffffff1660e01b8152600401610bf6919061288f565b602060405180830381865afa925050508015610c3057506040513d601f19601f82011682018060405250810190610c2d9190612fb3565b60015b15610c97573373ffffffffffffffffffffffffffffffffffffffff168173ffffffffffffffffffffffffffffffffffffffff1603610c955781858580610c7590612fe0565b965081518110610c8857610c87612f6f565b5b6020026020010181815250505b505b508080600101915050610b91565b508194505050505090565b6000610cbb826113ca565b9050919050565b60008073ffffffffffffffffffffffffffffffffffffffff168273ffffffffffffffffffffffffffffffffffffffff1603610d355760006040517f89c62b64000000000000000000000000000000000000000000000000000000008152600401610d2c91906127f9565b60405180910390fd5b600360008373ffffffffffffffffffffffffffffffffffffffff1673ffffffffffffffffffffffffffffffffffffffff168152602001908152602001600020549050919050565b610d84611749565b610d8e60006117d0565b565b6005600a60003373ffffffffffffffffffffffffffffffffffffffff1673ffffffffffffffffffffffffffffffffffffffff1681526020019081526020016000205410610e12576040517f08c379a0000000000000000000000000000000000000000000000000000000008152600401610e0990613074565b60405180910390fd5b600060086000815480929190610e2790612fe0565b919050559050610e373382611896565b610e4181836118b4565b600a60003373ffffffffffffffffffffffffffffffffffffffff1673ffffffffffffffffffffffffffffffffffffffff1681526020019081526020016000206000815480929190610e9190612fe0565b9190505550600960003373ffffffffffffffffffffffffffffffffffffffff1673ffffffffffffffffffffffffffffffffffffffff16815260200190815260200160002060405180606001604052808381526020013373ffffffffffffffffffffffffffffffffffffffff1681526020014281525090806001815401808255809150506001900390600052602060002090600302016000909190919091506000820151816000015560208201518160010160006101000a81548173ffffffffffffffffffffffffffffffffffffffff021916908373ffffffffffffffffffffffffffffffffffffffff1602179055506040820151816002015550505050565b6000600760009054906101000a900473ffffffffffffffffffffffffffffffffffffffff16905090565b606060018054610fc990612e1a565b80601f0160208091040260200160405190810160405280929190818152602001828054610ff590612e1a565b80156110425780601f1061101757610100808354040283529160200191611042565b820191906000526020600020905b81548152906001019060200180831161102557829003601f168201915b5050505050905090565b61105e61105761148f565b8383611910565b5050565b61106d8484846106a6565b61108161107861148f565b85858585611a7f565b50505050565b606061109282611c30565b9050919050565b600581565b6110a6611749565b6000600860008154809291906110bb90612fe0565b9190505590506110cb8382611896565b6110d581836118b4565b600960008473ffffffffffffffffffffffffffffffffffffffff1673ffffffffffffffffffffffffffffffffffffffff16815260200190815260200160002060405180606001604052808381526020018573ffffffffffffffffffffffffffffffffffffffff1681526020014281525090806001815401808255809150506001900390600052602060002090600302016000909190919091506000820151816000015560208201518160010160006101000a81548173ffffffffffffffffffffffffffffffffffffffff021916908373ffffffffffffffffffffffffffffffffffffffff160217905550604082015181600201555050505050565b6000600560008473ffffffffffffffffffffffffffffffffffffffff1673ffffffffffffffffffffffffffffffffffffffff16815260200190815260200160002060008373ffffffffffffffffffffffffffffffffffffffff1673ffffffffffffffffffffffffffffffffffffffff16815260200190815260200160002060009054906101000a900460ff16905092915050565b6009602052816000526040600020818154811061128057600080fd5b9060005260206000209060030201600091509150508060000154908060010160009054906101000a900473ffffffffffffffffffffffffffffffffffffffff16908060020154905083565b6112d3611749565b600073ffffffffffffffffffffffffffffffffffffffff168173ffffffffffffffffffffffffffffffffffffffff16036113455760006040517f1e4fbdf700000000000000000000000000000000000000000000000000000000815260040161133c91906127f9565b60405180910390fd5b61134e816117d0565b50565b600a6020528060005260406000206000915090505481565b6000634906490660e01b7bffffffffffffffffffffffffffffffffffffffffffffffffffffffff1916827bffffffffffffffffffffffffffffffffffffffffffffffffffffffff191614806113c357506113c282611d43565b5b9050919050565b6000806113d683611e25565b9050600073ffffffffffffffffffffffffffffffffffffffff168173ffffffffffffffffffffffffffffffffffffffff160361144957826040517f7e273289000000000000000000000000000000000000000000000000000000008152600401611440919061288f565b60405180910390fd5b80915050919050565b60006004600083815260200190815260200160002060009054906101000a900473ffffffffffffffffffffffffffffffffffffffff169050919050565b600033905090565b6114a48383836001611e62565b505050565b6000806114b584611e25565b9050600073ffffffffffffffffffffffffffffffffffffffff168373ffffffffffffffffffffffffffffffffffffffff16146114f7576114f6818486612027565b5b600073ffffffffffffffffffffffffffffffffffffffff168173ffffffffffffffffffffffffffffffffffffffff161461158857611539600085600080611e62565b6001600360008373ffffffffffffffffffffffffffffffffffffffff1673ffffffffffffffffffffffffffffffffffffffff168152602001908152602001600020600082825403925050819055505b600073ffffffffffffffffffffffffffffffffffffffff168573ffffffffffffffffffffffffffffffffffffffff161461160b576001600360008773ffffffffffffffffffffffffffffffffffffffff1673ffffffffffffffffffffffffffffffffffffffff168152602001908152602001600020600082825401925050819055505b846002600086815260200190815260200160002060006101000a81548173ffffffffffffffffffffffffffffffffffffffff021916908373ffffffffffffffffffffffffffffffffffffffff160217905550838573ffffffffffffffffffffffffffffffffffffffff168273ffffffffffffffffffffffffffffffffffffffff167fddf252ad1be2c89b69c2b068fc378daa952ba7f163c4a11628f55a4df523b3ef60405160405180910390a4809150509392505050565b60006116d260008360006114a9565b9050600073ffffffffffffffffffffffffffffffffffffffff168173ffffffffffffffffffffffffffffffffffffffff160361174557816040517f7e27328900000000000000000000000000000000000000000000000000000000815260040161173c919061288f565b60405180910390fd5b5050565b61175161148f565b73ffffffffffffffffffffffffffffffffffffffff1661176f610f90565b73ffffffffffffffffffffffffffffffffffffffff16146117ce5761179261148f565b6040517f118cdaa70000000000000000000000000000000000000000000000000000000081526004016117c591906127f9565b60405180910390fd5b565b6000600760009054906101000a900473ffffffffffffffffffffffffffffffffffffffff16905081600760006101000a81548173ffffffffffffffffffffffffffffffffffffffff021916908373ffffffffffffffffffffffffffffffffffffffff1602179055508173ffffffffffffffffffffffffffffffffffffffff168173ffffffffffffffffffffffffffffffffffffffff167f8be0079c531659141344cd1fd0a4f28419497f9722a3daafe3b4186f6b6457e060405160405180910390a35050565b6118b08282604051806020016040528060008152506120eb565b5050565b806006600084815260200190815260200160002090816118d49190613240565b507ff8e1a15aba9398e019f0b49df1a4fde98ee17ae345cb5f6b5e2c27f5033e8ce782604051611904919061288f565b60405180910390a15050565b600073ffffffffffffffffffffffffffffffffffffffff168273ffffffffffffffffffffffffffffffffffffffff160361198157816040517f5b08ba1800000000000000000000000000000000000000000000000000000000815260040161197891906127f9565b60405180910390fd5b80600560008573ffffffffffffffffffffffffffffffffffffffff1673ffffffffffffffffffffffffffffffffffffffff16815260200190815260200160002060008473ffffffffffffffffffffffffffffffffffffffff1673ffffffffffffffffffffffffffffffffffffffff16815260200190815260200160002060006101000a81548160ff0219169083151502179055508173ffffffffffffffffffffffffffffffffffffffff168373ffffffffffffffffffffffffffffffffffffffff167f17307eab39ab6107e8899845ad3d59bd9653f200f220920489ca2b5937696c3183604051611a729190612688565b60405180910390a3505050565b60008373ffffffffffffffffffffffffffffffffffffffff163b1115611c29578273ffffffffffffffffffffffffffffffffffffffff1663150b7a02868685856040518563ffffffff1660e01b8152600401611ade9493929190613367565b6020604051808303816000875af1925050508015611b1a57506040513d601f19601f82011682018060405250810190611b1791906133c8565b60015b611b9e573d8060008114611b4a576040519150601f19603f3d011682016040523d82523d6000602084013e611b4f565b606091505b506000815103611b9657836040517f64a0ae92000000000000000000000000000000000000000000000000000000008152600401611b8d91906127f9565b60405180910390fd5b805181602001fd5b63150b7a0260e01b7bffffffffffffffffffffffffffffffffffffffffffffffffffffffff1916817bffffffffffffffffffffffffffffffffffffffffffffffffffffffff191614611c2757836040517f64a0ae92000000000000000000000000000000000000000000000000000000008152600401611c1e91906127f9565b60405180910390fd5b505b5050505050565b6060611c3b826113ca565b506000600660008481526020019081526020016000208054611c5c90612e1a565b80601f0160208091040260200160405190810160405280929190818152602001828054611c8890612e1a565b8015611cd55780601f10611caa57610100808354040283529160200191611cd5565b820191906000526020600020905b815481529060010190602001808311611cb857829003601f168201915b505050505090506000611ce661210f565b90506000815103611cfb578192505050611d3e565b600082511115611d30578082604051602001611d18929190613431565b60405160208183030381529060405292505050611d3e565b611d3984612126565b925050505b919050565b60007f80ac58cd000000000000000000000000000000000000000000000000000000007bffffffffffffffffffffffffffffffffffffffffffffffffffffffff1916827bffffffffffffffffffffffffffffffffffffffffffffffffffffffff19161480611e0e57507f5b5e139f000000000000000000000000000000000000000000000000000000007bffffffffffffffffffffffffffffffffffffffffffffffffffffffff1916827bffffffffffffffffffffffffffffffffffffffffffffffffffffffff1916145b80611e1e5750611e1d8261218f565b5b9050919050565b60006002600083815260200190815260200160002060009054906101000a900473ffffffffffffffffffffffffffffffffffffffff169050919050565b8080611e9b5750600073ffffffffffffffffffffffffffffffffffffffff168273ffffffffffffffffffffffffffffffffffffffff1614155b15611fcf576000611eab846113ca565b9050600073ffffffffffffffffffffffffffffffffffffffff168373ffffffffffffffffffffffffffffffffffffffff1614158015611f1657508273ffffffffffffffffffffffffffffffffffffffff168173ffffffffffffffffffffffffffffffffffffffff1614155b8015611f295750611f2781846111d0565b155b15611f6b57826040517fa9fbf51f000000000000000000000000000000000000000000000000000000008152600401611f6291906127f9565b60405180910390fd5b8115611fcd57838573ffffffffffffffffffffffffffffffffffffffff168273ffffffffffffffffffffffffffffffffffffffff167f8c5be1e5ebec7d5bd14f71427d1e84f3dd0314c0f7b2291e5b200ac8c7c3b92560405160405180910390a45b505b836004600085815260200190815260200160002060006101000a81548173ffffffffffffffffffffffffffffffffffffffff021916908373ffffffffffffffffffffffffffffffffffffffff16021790555050505050565b6120328383836121f9565b6120e657600073ffffffffffffffffffffffffffffffffffffffff168373ffffffffffffffffffffffffffffffffffffffff16036120a757806040517f7e27328900000000000000000000000000000000000000000000000000000000815260040161209e919061288f565b60405180910390fd5b81816040517f177e802f0000000000000000000000000000000000000000000000000000000081526004016120dd929190613455565b60405180910390fd5b505050565b6120f583836122ba565b61210a61210061148f565b6000858585611a7f565b505050565b606060405180602001604052806000815250905090565b6060612131826113ca565b50600061213c61210f565b9050600081511161215c5760405180602001604052806000815250612187565b80612166846123b3565b604051602001612177929190613431565b6040516020818303038152906040525b915050919050565b60007f01ffc9a7000000000000000000000000000000000000000000000000000000007bffffffffffffffffffffffffffffffffffffffffffffffffffffffff1916827bffffffffffffffffffffffffffffffffffffffffffffffffffffffff1916149050919050565b60008073ffffffffffffffffffffffffffffffffffffffff168373ffffffffffffffffffffffffffffffffffffffff16141580156122b157508273ffffffffffffffffffffffffffffffffffffffff168473ffffffffffffffffffffffffffffffffffffffff161480612272575061227184846111d0565b5b806122b057508273ffffffffffffffffffffffffffffffffffffffff1661229883611452565b73ffffffffffffffffffffffffffffffffffffffff16145b5b90509392505050565b600073ffffffffffffffffffffffffffffffffffffffff168273ffffffffffffffffffffffffffffffffffffffff160361232c5760006040517f64a0ae9200000000000000000000000000000000000000000000000000000000815260040161232391906127f9565b60405180910390fd5b600061233a838360006114a9565b9050600073ffffffffffffffffffffffffffffffffffffffff168173ffffffffffffffffffffffffffffffffffffffff16146123ae5760006040517f73c6ac6e0000000000000000000000000000000000000000000000000000000081526004016123a591906127f9565b60405180910390fd5b505050565b6060600060016123c284612481565b01905060008167ffffffffffffffff8111156123e1576123e0612a14565b5b6040519080825280601f01601f1916602001820160405280156124135781602001600182028036833780820191505090505b509050600082602001820190505b600115612476578080600190039150507f3031323334353637383961626364656600000000000000000000000000000000600a86061a8153600a858161246a5761246961347e565b5b04945060008503612421575b819350505050919050565b600080600090507a184f03e93ff9f4daa797ed6e38ed64bf6a1f01000000000000000083106124df577a184f03e93ff9f4daa797ed6e38ed64bf6a1f01000000000000000083816124d5576124d461347e565b5b0492506040810190505b6d04ee2d6d415b85acef8100000000831061251c576d04ee2d6d415b85acef810000000083816125125761251161347e565b5b0492506020810190505b662386f26fc10000831061254b57662386f26fc1000083816125415761254061347e565b5b0492506010810190505b6305f5e1008310612574576305f5e100838161256a5761256961347e565b5b0492506008810190505b612710831061259957612710838161258f5761258e61347e565b5b0492506004810190505b606483106125bc57606483816125b2576125b161347e565b5b0492506002810190505b600a83106125cb576001810190505b80915050919050565b6000604051905090565b600080fd5b600080fd5b60007fffffffff0000000000000000000000000000000000000000000000000000000082169050919050565b61261d816125e8565b811461262857600080fd5b50565b60008135905061263a81612614565b92915050565b600060208284031215612656576126556125de565b5b60006126648482850161262b565b91505092915050565b60008115159050919050565b6126828161266d565b82525050565b600060208201905061269d6000830184612679565b92915050565b600081519050919050565b600082825260208201905092915050565b60005b838110156126dd5780820151818401526020810190506126c2565b60008484015250505050565b6000601f19601f8301169050919050565b6000612705826126a3565b61270f81856126ae565b935061271f8185602086016126bf565b612728816126e9565b840191505092915050565b6000602082019050818103600083015261274d81846126fa565b905092915050565b6000819050919050565b61276881612755565b811461277357600080fd5b50565b6000813590506127858161275f565b92915050565b6000602082840312156127a1576127a06125de565b5b60006127af84828501612776565b91505092915050565b600073ffffffffffffffffffffffffffffffffffffffff82169050919050565b60006127e3826127b8565b9050919050565b6127f3816127d8565b82525050565b600060208201905061280e60008301846127ea565b92915050565b61281d816127d8565b811461282857600080fd5b50565b60008135905061283a81612814565b92915050565b60008060408385031215612857576128566125de565b5b60006128658582860161282b565b925050602061287685828601612776565b9150509250929050565b61288981612755565b82525050565b60006020820190506128a46000830184612880565b92915050565b6000806000606084860312156128c3576128c26125de565b5b60006128d18682870161282b565b93505060206128e28682870161282b565b92505060406128f386828701612776565b9150509250925092565b600081519050919050565b600082825260208201905092915050565b6000819050602082019050919050565b61293281612755565b82525050565b60006129448383612929565b60208301905092915050565b6000602082019050919050565b6000612968826128fd565b6129728185612908565b935061297d83612919565b8060005b838110156129ae5781516129958882612938565b97506129a083612950565b925050600181019050612981565b5085935050505092915050565b600060208201905081810360008301526129d5818461295d565b905092915050565b6000602082840312156129f3576129f26125de565b5b6000612a018482850161282b565b91505092915050565b600080fd5b600080fd5b7f4e487b7100000000000000000000000000000000000000000000000000000000600052604160045260246000fd5b612a4c826126e9565b810181811067ffffffffffffffff82111715612a6b57612a6a612a14565b5b80604052505050565b6000612a7e6125d4565b9050612a8a8282612a43565b919050565b600067ffffffffffffffff821115612aaa57612aa9612a14565b5b612ab3826126e9565b9050602081019050919050565b82818337600083830152505050565b6000612ae2612add84612a8f565b612a74565b905082815260208101848484011115612afe57612afd612a0f565b5b612b09848285612ac0565b509392505050565b600082601f830112612b2657612b25612a0a565b5b8135612b36848260208601612acf565b91505092915050565b600060208284031215612b5557612b546125de565b5b600082013567ffffffffffffffff811115612b7357612b726125e3565b5b612b7f84828501612b11565b91505092915050565b612b918161266d565b8114612b9c57600080fd5b50565b600081359050612bae81612b88565b92915050565b60008060408385031215612bcb57612bca6125de565b5b6000612bd98582860161282b565b9250506020612bea85828601612b9f565b9150509250929050565b600067ffffffffffffffff821115612c0f57612c0e612a14565b5b612c18826126e9565b9050602081019050919050565b6000612c38612c3384612bf4565b612a74565b905082815260208101848484011115612c5457612c53612a0f565b5b612c5f848285612ac0565b509392505050565b600082601f830112612c7c57612c7b612a0a565b5b8135612c8c848260208601612c25565b91505092915050565b60008060008060808587031215612caf57612cae6125de565b5b6000612cbd8782880161282b565b9450506020612cce8782880161282b565b9350506040612cdf87828801612776565b925050606085013567ffffffffffffffff811115612d0057612cff6125e3565b5b612d0c87828801612c67565b91505092959194509250565b60008060408385031215612d2f57612d2e6125de565b5b6000612d3d8582860161282b565b925050602083013567ffffffffffffffff811115612d5e57612d5d6125e3565b5b612d6a85828601612b11565b9150509250929050565b60008060408385031215612d8b57612d8a6125de565b5b6000612d998582860161282b565b9250506020612daa8582860161282b565b9150509250929050565b6000606082019050612dc96000830186612880565b612dd660208301856127ea565b612de36040830184612880565b949350505050565b7f4e487b7100000000000000000000000000000000000000000000000000000000600052602260045260246000fd5b60006002820490506001821680612e3257607f821691505b602082108103612e4557612e44612deb565b5b50919050565b6000606082019050612e6060008301866127ea565b612e6d6020830185612880565b612e7a60408301846127ea565b949350505050565b7f4e6f7420746865206f776e6572206f662074686973204e465400000000000000600082015250565b6000612eb86019836126ae565b9150612ec382612e82565b602082019050919050565b60006020820190508181036000830152612ee781612eab565b9050919050565b7f4e487b7100000000000000000000000000000000000000000000000000000000600052601160045260246000fd5b6000612f2882612755565b915060008203612f3b57612f3a612eee565b5b600182039050919050565b6000604082019050612f5b6000830185612880565b612f686020830184612880565b9392505050565b7f4e487b7100000000000000000000000000000000000000000000000000000000600052603260045260246000fd5b600081519050612fad81612814565b92915050565b600060208284031215612fc957612fc86125de565b5b6000612fd784828501612f9e565b91505092915050565b6000612feb82612755565b91507fffffffffffffffffffffffffffffffffffffffffffffffffffffffffffffffff820361301d5761301c612eee565b5b600182019050919050565b7f4d6178206d696e74207265616368656400000000000000000000000000000000600082015250565b600061305e6010836126ae565b915061306982613028565b602082019050919050565b6000602082019050818103600083015261308d81613051565b9050919050565b60008190508160005260206000209050919050565b60006020601f8301049050919050565b600082821b905092915050565b6000600883026130f67fffffffffffffffffffffffffffffffffffffffffffffffffffffffffffffffff826130b9565b61310086836130b9565b95508019841693508086168417925050509392505050565b6000819050919050565b600061313d61313861313384612755565b613118565b612755565b9050919050565b6000819050919050565b61315783613122565b61316b61316382613144565b8484546130c6565b825550505050565b600090565b613180613173565b61318b81848461314e565b505050565b5b818110156131af576131a4600082613178565b600181019050613191565b5050565b601f8211156131f4576131c581613094565b6131ce846130a9565b810160208510156131dd578190505b6131f16131e9856130a9565b830182613190565b50505b505050565b600082821c905092915050565b6000613217600019846008026131f9565b1980831691505092915050565b60006132308383613206565b9150826002028217905092915050565b613249826126a3565b67ffffffffffffffff81111561326257613261612a14565b5b61326c8254612e1a565b6132778282856131b3565b600060209050601f8311600181146132aa5760008415613298578287015190505b6132a28582613224565b86555061330a565b601f1984166132b886613094565b60005b828110156132e0578489015182556001820191506020850194506020810190506132bb565b868310156132fd57848901516132f9601f891682613206565b8355505b6001600288020188555050505b505050505050565b600081519050919050565b600082825260208201905092915050565b600061333982613312565b613343818561331d565b93506133538185602086016126bf565b61335c816126e9565b840191505092915050565b600060808201905061337c60008301876127ea565b61338960208301866127ea565b6133966040830185612880565b81810360608301526133a8818461332e565b905095945050505050565b6000815190506133c281612614565b92915050565b6000602082840312156133de576133dd6125de565b5b60006133ec848285016133b3565b91505092915050565b600081905092915050565b600061340b826126a3565b61341581856133f5565b93506134258185602086016126bf565b80840191505092915050565b600061343d8285613400565b91506134498284613400565b91508190509392505050565b600060408201905061346a60008301856127ea565b6134776020830184612880565b9392505050565b7f4e487b7100000000000000000000000000000000000000000000000000000000600052601260045260246000fdfea2646970667358221220408b1882d4b4f7b1235ddaa4ad88d001cb02b96b378c7ad400db58fb591878ba64736f6c634300081c0033",
  "linkReferences": {},
  "deployedLinkReferences": {}
}